S01400005068797369637354696D65722E737265632C
S113000019C031C030C02FC02EC02DC025C22BC096
S11300102AC029C028C027C026C025C024C023C0A8
S113002022C021C020C01FC094C23F065B4F666D32
S11300307D077F6F11241FBECFEDCDBF10E0A0E67A
S1130040B0E0E8E1F6E002C005900D92A236B107F7
S1130050D9F720E0A2E6B0E001C01D92A937B207AB
S1130060E1F782D0D7C2CCCF98E0882314F4C49AA5
S113007001C0C49822E02A95F1F700C0C69A22E094
S11300802A95F1F700C0C69822E02A95F1F700C03E
S1130090880F915051F70895929A8FE39CE9019744
S11300A0F1F700C0000092989FEF21EE84E0915098
S11300B020408040E1F700C00000929A8FE39CE961
S11300C00197F1F700C0000092989FEF20E782E0CB
S11300D0915020408040E1F700C00000929A8FE3E5
S11300E09CE90197F1F700C0000092989FEF20E788
S11300F082E0915020408040E1F700C00000929AD5
S11301008FE39CE90197F1F700C0000092989FEFFC
S113011021EE84E0915020408040E1F700C00000CF
S1130120929A8FE39CE90197F1F700C0000092983E
S11301309FEF21EE84E0915020408040E1F700C021
S11301400000089580916400882369F0929A8FE3F7
S11301509CE90197F1F700C0000092988091640037
S1130160815080936400089582E089BF83BF83E057
S113017080BF90E795BF90E19BBF1ABA8BBB8FE716
S113018087BB18BA84E481BB88E582BB80E886BD5E
S1130190C1E0C6BD789480DF1092760010926600AC
S11301A01092650010927600109272001092710005
S11301B0109274001092730010927500C5B980916A
S11301C06E0080936C0080916D0080936B00AA2474
S11301D0A3946894882481F8C7E6D0E00F2EFAE04F
S11301E0BF2EF02D0F2EF4E6EF2EF12CF02D0AE0A9
S11301F010E0CC24C394D12C9A2C839942C08091D2
S11302007000811147C080916F00833308F009C1E9
S113021041C01092760005C0809176008F5F809374
S113022076008091760081111AC0109266001092B7
S11302306500109276001092720010927100109274
S113024074001092730010927500A5B880916E002E
S113025080936C0080916D0080936B0005C0809149
S11302607600813009F485B8929A8FE39CE901976E
S1130270F1F700C000009298109266001092650099
S113028009C080917000882329F080916F00833326
S113029008F0D1C0809175006B2D9CD1988380911A
S11302A0730090917400B701A1D1698380917300A8
S11302B090917400B7019AD1B80198D16A83809162
S11302C0730090917400B80191D18B839091630075
S11302D0E92FF0E0E959FF4FE081F0E0E65DFF4FE0
S11302E084918095911107C08F7720917600222305
S11302F009F4A6C024C020917600211111C02091D8
S11303006000822B40917700509178004631534031
S113031038F02095209360001092780010927700B6
S1130320923031F4819B02C0806809C08F7707C086
S1130330933029F4809B02C0806801C08F7794DEDB
S113034088B3807F88BB88B388BBC59A42E04A954E
S1130350F1F700C0C59852E05A95F1F700C020911A
S1130360630088B3807F88BB98B3A60102C0440FA2
S1130370551F2A95E2F7842F8F70892B88BB8091B3
S11303806300833018F01092630003C08F5F809382
S11303906300D8DE809165009091660081369A4EA4
S11303A008F42BCF80E88BBF15B81ABA1BBA17BA5A
S11303B018BA11BA88E182BB15B81092660010927F
S11303C0650085B7806285BF889585B78F7D85BFB9
S11303D080E18BBF1ABA83E08BBB8FE787BB18BA67
S11303E084E481BB88E582BB10927600109266009B
S11303F010926500109276001092720010927100B3
S1130400109274001092730010927500A5B8809138
S11304106E0080936C0080916D0080936B003CDED5
S1130420ECCE9092700010926F0080917600823032
S113043008F0EFCEF1CE1092700010926F002ACF28
S113044020916000822B40917700509178004631D2
S1130450534008F05ECF73CF1F920F920FB60F92E6
S113046011240F931F932F933F935F936F937F9365
S11304708F939F93AF93BF93CF93DF93EF93FF93A8
S113048092B380E2892782BB209162002F5F209380
S1130490620080917600813069F5809171009091BD
S11304A072009395C0917300D0917400E8EEF3E06C
S11304B0BF019CD08C01C60FD71FD0937400C0938A
S11304C07300809173009091740030917500BF01A6
S11304D08DD0630F609375001093720000937100C8
S11304E08091730090917400BF0180D09093740048
S11304F0809373002430C8F01092620080916F00E2
S11305008F5F80936F0080917700909178000196BF
S113051090937800809377008091650090916600B5
S113052001969093660080936500FF91EF91DF91AF
S1130530CF91BF91AF919F918F917F916F915F9177
S11305403F912F911F910F910F900FBE0F901F900D
S113055018951F920F920FB60F9211242F933F9369
S11305608F939F9315B88091760081110BC081E021
S11305708093760082E085B9809164008F5F8093D8
S1130580640019C0809176008130A9F480B3209171
S11305906C0030E0827090E02817390751F082E057
S11305A08093760015B8809164008F5F8093640017
S11305B002C082E085B9109266001092650080E165
S11305C08ABF9F918F913F912F910F900FBE0F90F3
S11305D01F901895991B79E004C0991F961708F08D
S11305E0961B881F7A95C9F780950895AA1BBB1B93
S11305F051E107C0AA1FBB1FA617B70710F0A61B1F
S1130600B70B881F991F5A95A9F780959095BC013F
S10B0610CD010895F894FFCF19
S1050618FF00DD
S9030000FC
