S01400005068797369637354696D65722E737265632C
S113000019C031C030C02FC02EC02DC0A8C12BC014
S11300102AC029C028C027C026C025C024C023C0A8
S113002022C021C020C015C21EC03F065B4F666DB2
S11300307D077F6F11241FBECFEDCDBF10E0A0E67A
S1130040B0E0E0EFF4E002C005900D92A236B107F3
S1130050D9F720E0A2E6B0E001C01D92A637B207AE
S1130060E1F708D143C2CCCF88E08BBF1ABA83E052
S11300708BBB8FE787BB18BA87E481BB89E482BB5B
S1130080089598E087FF02C0C49A01C0C49822E092
S11300902A95F1F700C0C69A22E02A95F1F700C02C
S11300A0C69822E02A95F1F700C0880F915051F7C5
S11300B0089598B3907F98BB98B321E030E001C0D5
S11300C0220F8A95EAF72F70292B28BB0895929A5C
S11300D08FE39CE90197F1F700C00000929808951E
S11300E0F6DF2FEF81EE94E0215080409040E1F75D
S11300F000C00000ECDF2FEF80E792E02150804049
S11301009040E1F700C00000E2DF2FEF80E792E0CB
S1130110215080409040E1F700C00000D8DF2FEF6D
S113012081EE94E0215080409040E1F700C000004F
S1130130CEDF2FEF81EE94E0215080409040E1F734
S113014000C00000089580916400882331F0BFDF6F
S1130150809164008150809364000895F894109213
S11301606600109265001092730010926F00109256
S11301706E001092710010927000109272007894C8
S1130180089510927300EADF81E084B989B3817025
S113019080936B00089580917300823018F0109260
S11301A0730005C0809173008F5F8093730080910A
S11301B07300811108C0D2DF81E084B989B38170F2
S11301C080936B0006C080917300813011F482E04B
S11301D084B97DDF109266001092650008959091B5
S11301E06300E92FF0E0E959FF4FE081F0E0E65DBC
S11301F0FF4F84918095911101C08F7720917300F6
S1130200211111C020916000822B40917400509103
S113021075004631534038F02095209360001092C9
S1130220750010927400923019F4C99B07C004C081
S1130230933029F4C89B02C0806801C08F7721DF06
S113024084E037DFC59A82E08A95F1F700C0C5984B
S113025032E03A95F1F700C0809163002ADF809183
S11302606300833018F01092630008958F5F8093C9
S11302706300089582E089BF83BF83E080BF80E785
S113028085BFF2DE78942CDF7CDF8AE0F82EC4E6AA
S1130290D0E00AE010E0EE24E39490E8D92E28E0C0
S11302A0C22E80916D00839908C081110DC0809188
S11302B06C00813508F048C007C0882329F080917C
S11302C06C00813508F046C0809172006F2DEED02D
S11302D0909367008091700090917100BE01F2D0FC
S11302E0609368008091700090917100BE01EAD023
S11302F0B801E8D06093690080917000909171001A
S1130300B801E0D080936A006ADF1DDF8091650048
S11303109091660081369A4E20F2DBBE14B81ABA68
S11303201BBA17BA18BA11BAC2BA10926600109260
S1130330650085B7806285BF889585B78F7D85BF49
S113034093DE1FDFCDDEADCFE0926D0010926C0026
S113035022DFBACF10926D0010926C00B5CF1F92BD
S11303600F920FB60F9211240F931F932F933F9365
S11303705F936F937F938F939F93AF93BF93CF9329
S1130380DF93EF93FF93209162002F5F209362002D
S113039080917300813071F580916E0090916F00AF
S11303A0895F9E4FC0917000D0917100E8EEF3E038
S11303B0BF0188D08C01C60FD71FD0937100C093A2
S11303C07000809170009091710030917200BF01B3
S11303D079D0630F6093720010936F0000936E00E6
S11303E08091700090917100BF016CD09093710066
S11303F0809370002430C8F01092620080916C00E9
S11304008F5F80936C0080917400909175000196C9
S113041090937500809374008091650090916600BC
S113042001969093660080936500FF91EF91DF91B0
S1130430CF91BF91AF919F918F917F916F915F9178
S11304403F912F911F910F910F900FBE0F901F900E
S113045018951F920F920FB60F9211248F939F93AA
S113046014B888E08ABF90917300911106C081E0AE
S11304708093730082E084B909C090917300913035
S113048051F492E09093730014B88ABF8091640091
S11304908F5F8093640010926600109265009F91B4
S11304A08F910F900FBE0F901F901895991B79E0B4
S11304B004C0991F961708F0961B881F7A95C9F7F0
S11304C080950895AA1BBB1B51E107C0AA1FBB1F3F
S11304D0A617B70710F0A61BB70B881F991F5A95CC
S11304E0A9F780959095BC01CD010895F894FFCFAC
S10504F0FF0007
S9030000FC
